:020000040800F2
:100000000807002029020008C3130008E9120008AD
:10001000C11300082F03000861160008000000004B
:10002000000000000000000000000000451400086F
:100030003103000800000000C51300084714000841
:10004000430200084302000843020008430200087C
:10005000430200084302000843020008430200086C
:10006000430200084302000843020008430200085C
:10007000430200084302000843020008430200084C
:10008000430200084302000843020008430200083C
:10009000430200084302000843020008430200082C
:1000A00043020008CD140008430200084302000880
:1000B000430200084302000843020008430200080C
:1000C00043020008430200084302000843020008FC
:1000D00043020008430200084302000843020008EC
:1000E00043020008430200084302000843020008DC
:1000F00043020008430200084302000843020008CC
:1001000043020008430200084302000843020008BB
:1001100043020008430200084302000843020008AB
:10012000430200084302000843020008430200089B
:10013000430200084302000843020008430200088B
:10014000430200084302000843020008430200087B
:10015000430200084302000843020008430200086B
:10016000430200084302000843020008430200085B
:100170004302000843020008430200080000000098
:10018000430200084302000800F002F800F03CF8C7
:100190000AA090E8000C82448344AAF10107DA45E2
:1001A00001D100F031F8AFF2090EBAE80F0013F0F8
:1001B000010F18BFFB1A43F001031847F0150000A8
:1001C00010160000103A24BF78C878C1FAD8520738
:1001D00024BF30C830C144BF04680C6070470000C1
:1001E0000023002400250026103A28BF78C1FBD840
:1001F000520728BF30C148BF0B6070471FB501F0E0
:10020000AFFA1FBD10B510BD00F058F81146FFF74A
:10021000F5FF01F059FA00F076F803B4FFF7F2FFAA
:1002200003BC00F07DF800000948804709480047FA
:10023000FEE7FEE7FEE7FEE7FEE7FEE7FEE7FEE796
:10024000FEE7FEE704480549054A064B70470000F3
:10025000BD140008890100080801002008070020DB
:1002600008030020080300204FF0000200B51346E9
:1002700094469646203922BFA0E80C50A0E80C50C6
:10028000B1F12001BFF4F7AF090728BFA0E80C5077
:1002900048BF0CC05DF804EB890028BF40F8042B70
:1002A00008BF704748BF20F8022B11F0804F18BFDD
:1002B00000F8012B7047704770477047754600F093
:1002C0002BF8AE4605006946534620F007008546E8
:1002D00018B020B5FFF7B6FFBDE820404FF000068C
:1002E0004FF000074FF000084FF0000B21F007011E
:1002F000AC46ACE8C009ACE8C009ACE8C009ACE861
:10030000C0098D46704710B50446AFF30080204603
:10031000BDE81040FFF781BF00487047A8000020EB
:1003200001491820ABBEFEE7260002007047FEE739
:10033000704700002DE9F04FDFF8EC910022012713
:10034000A9F1040B85B003254FF00F0C09F1040A45
:10035000ABF1040EE0E000BF07FA02F416EA040372
:100360007ED00E7906F00306012E01D0022E1FD199
:1003700086680096560005FA06F80496009E26EA5E
:1003800008060096D1F80C80049E08FA06F8009E34
:1003900048EA0608C0F80880466891F80480A64339
:1003A000C8F3001808FA02F848EA0608C0F8048002
:1003B000D1F804806FEA0806B6070AD1C66AA643D8
:1003C000C8F3C00494403443C4620C79E443A407E6
:1003D0000AD0C4684FEA420805FA08F6B4438E68AA
:1003E00006FA08F62643C6600C7904F00304022CD2
:1003F00011D1D40800EB84060296D6F82080540769
:10040000E60E0CFA06F428EA04080C69B440029ED1
:1004100044EA0804346204685600029605FA06F6B7
:10042000B4430E7906F00308029E08FA06F848EA7B
:100430000408C0F800804C6814F4403F6BD03B4C7B
:10044000266E46F001062666246E22F0030604F0AE
:1004500001040094364C34440294A468960700E0EA
:1004600059E04FEA16780CFA08F6B443B0F1904F11
:1004700004D0304EB04203D101261BE0002619E023
:100480002D4EB04201D1022614E02C4EB04201D1D3
:1004900003260FE02A4EB04201D104260AE0294E7D
:1004A000B04201D1052605E0274EB04201D1062613
:1004B00000E0072606FA08F62643029CA660D9F853
:1004C00000404E46D1F804809C435FEAC82800D51E
:1004D0001C433460DAF800405646D1F804809C434F
:1004E0005FEA882800D51C433460DBF800405E4694
:1004F000D1F804809C435FEA883800D51C433460FF
:10050000DEF800407646D1F804809C435FEAC838A4
:1005100000D51C433460521C0B681E46D3407FF448
:100520001BAF05B000F012B80804014000100240F3
:10053000000001400004004800080048000C00488A
:1005400000100048001400480018004830BCBDE806
:10055000C08F426921EA02030A4043EA02418161F5
:1005600070470AB1816170478162704701488068B5
:1005700070470000000000200248816802781144A2
:10058000816070470000002010B50024032000F0B7
:1005900071F80F2000F008F808B1012401E000F024
:1005A00025F8204610BD000070B50E4E054600240B
:1005B000307898B14FF47A71B1FBF0F00A490968CC
:1005C000B1FBF0F000F024FC40B9102D06D200225F
:1005D0002946501E00F02EF8756000E001242046E8
:1005E00070BD0000000000200C000020094808B584
:1005F000016E41F001010166016E01F001010091FF
:10060000816D41F080518165806D00F080500090D7
:1006100008BD000000100240002809DB00F01F02A6
:10062000012191404009800000F1E020C0F8001154
:1006300070470000F0B40E4B1B680C46C3F3022356
:10064000C3F10705042D00D90425191D072901D27E
:10065000002300E0DB1E012606FA05F1491E2140B9
:1006600099409E40761E16403143F0BC00F0F9BF21
:100670000CED00E0064900F0070208684FF6FF03A2
:10068000184040EA0220034A104308607047000007
:100690000CED00E00000FA051649B0F5007F08688F
:1006A000C0F3412009D0022805D0086820F4C060BA
:1006B00040F480600860002070470128FBD0086883
:1006C00020F4C06040F4007008600B4832220068DB
:1006D00050430A4AB0FBF2F0401C00E0401E4A6959
:1006E000520501D50028F9D148694005E3D503201A
:1006F00070470000007000400C00002040420F00D6
:100700000248006800F4C0607047000000700040BC
:100710002DE9F0470F4605006BD0494E306800F0D8
:100720000700B84209D2306820F007003843306033
:10073000306800F00700B8425BD12878414C800750
:100740000AD5A868A16801F0F001884204D9A1681F
:1007500021F0F0010143A1602878C0072CD068681F
:10076000032811D0022812D0216898B14905002928
:100770003FDAA16821F003010143A160FFF7F6FE13
:10078000804641F2883910E021688901EFE721684D
:100790008903ECE78907EAE7FFF7E8FEA0EB080129
:1007A000494502D90320BDE8F087A068696800F0D8
:1007B0000C00B0EB810FEFD1287880070AD5A8682C
:1007C000A16801F0F001884204D2A16821F0F00193
:1007D0000143A160306800F00700B8420BD93068CF
:1007E00020F0070038433060306800F00700B8425E
:1007F00001D00120D7E72878400705D5A068E9682F
:1008000020F4E0600843A0602878000706D5A068BF
:10081000296920F4605040EAC100A06000F01AF895
:10082000A168094AC1F30311515C01F01F01C840DE
:100830000649086006480068BDE8F047FFF7B4BE07
:1008400000200240001002406C1700080C0000203D
:100850000400002070B52549002318468A68CC683A
:1008600012F00C0204F00306214C4FEA640509D093
:100870000C2A05D0042A32D0082A00D1284670BD9F
:10088000012E10D10B681B0704D4D1F89430C3F3A8
:10089000032302E00B68C3F30313164E56F823300C
:1008A000DAB10C2AEBD1C86800F00300022818D096
:1008B000032818D01846CA68CB68C2F30212C3F3E3
:1008C00006234343521CB3FBF2F2C868C0F34160F5
:1008D000401C4000B2FBF0F070BD184670BD2046D1
:1008E00070BD2046E7E72846E5E70000001002401B
:1008F0000024F4007C1700082DE9F84304006FD0B1
:10090000FD4DA86800F00C06E86800F003072078A9
:10091000C00664D576B10C2E01D1012F0AD0A06992
:10092000002828687AD040F001002860FFF71EFEFA
:1009300080465DE02868800702D5A0690028DED0E7
:10094000216A2868000703D5286800F0F00004E059
:10095000D5F89400F02202EA1010814216D9084618
:1009600000F032FD00283BD1286840F008002860E4
:100970002868216A20F0F000084328606868E1696F
:1009800020F47F4040EA0120686016E0286840F0CB
:10099000080028602868216A20F0F00008432860D9
:1009A0006868E16920F47F4040EA0120686026B968
:1009B000206A00F009FD0028D5D1FFF74BFFA96898
:1009C000CE4AC1F30311515C01F01F01C840CC496C
:1009D0000860CC480068FFF7E7FD00287ED12EE0D4
:1009E000CAE000BFFFF7C2FDA0EB0800022876D8DE
:1009F00028688007F6D5286840F008002860286835
:100A0000216A20F0F000084328606868E16920F45A
:100A10007F4040EA0120686011E0FFE720F001001C
:100A20002860FFF7A3FD804606E000BFFFF79EFDAC
:100A3000A0EB08000228DAD828688007F6D42078CE
:100A4000C00740D0082E18D00C2E01D1032F14D08F
:100A50006068B0F5803F17D0B0F5A02F286817D098
:100A600020F480302860286820F4802028606068A6
:100A7000E0B1FFF77BFD804614E02868800322D5B3
:100A80006068002878D01EE0286840F48030EDE7E8
:100A900040F480202860F7E7FFF768FDA0EB08002E
:100AA0006428A4D828688003F6D50CE0FFF75EFD23
:100AB000804605E0FFF75AFDA0EB0800642896D8B1
:100AC00028688003F6D4207880073BD5042E11D007
:100AD0000C2E01D1022F0DD0E06801E086E1D6E0B6
:100AE000002828681ED040F480702860FFF73EFD83
:100AF00007460CE0286840050CD5E0680028C1D006
:100B000008E000BFFFF732FDC01B022893D8286819
:100B10004005F7D56868217C20F0F85040EA016074
:100B200068600FE020F480702860FFF71FFD074623
:100B300005E000BFFFF71AFDC01B0228B1D82868E6
:100B40004005F7D42078000729D560690028D5F83A
:100B5000940012D040F00100C5F89400FFF706FDA4
:100B6000074604E0FFF702FDC01B022899D8D5F81C
:100B700094008007F6D512E000E120F00100C5F8EE
:100B80009400FFF7F3FC074605E000BFFFF7EEFC1B
:100B9000C01B02287BD8D5F894008007F6D42078B3
:100BA000400766D5A86D0027C00008D4A86D40F0A6
:100BB0008050A865A86D012700F080500090524831
:100BC0000168C90512D40168814641F48071016051
:100BD000FFF7CCFC804605E0FFF7C8FCA0EB08005F
:100BE000022854D8D9F80000C005F5D5A06801281E
:100BF00016D00528D5F8900017D020F00100C5F8D0
:100C00009000D5F8900020F0040000BFC5F89000D7
:100C1000A06841F28839C0B1FFF7A8FC80460FE018
:100C2000D5F8900040F00100F0E740F00400C5F86E
:100C30009000F5E7FFF79AFCA0EB0801494526D89C
:100C4000D5F890008007F5D50EE0FFF78FFC8046C1
:100C500006E000BFFFF78AFCA0EB0801494516D863
:100C6000D5F890008007F5D41FB1A86D20F0805012
:100C7000A865A06AF0B302280AD00C2E7ED028689E
:100C800020F080702860FFF771FC0446B0E0ACE013
:100C9000E868E26A00F00301914229D1216B00F07B
:100CA000700209011039914222D1626B00F4FE41B9
:100CB000B1EB022F1CD1A26B00F40031072A01D046
:100CC000012200E00022914212D1A18F00F4C00263
:100CD00049084905A1F50011914209D194F8401045
:100CE00000F0C06049084906A1F1007181425ED060
:100CF0000C2E0BE072E00000001002406C170008A0
:100D00000C000020040000200070004079D028680A
:100D1000400176D42868C00073D4286820F0807021
:100D20002860FFF723FC064605E000BFFFF71EFC26
:100D3000801B022859D828688001F7D4D4E90B0118
:100D40006FF00F0202EB01110843A18F5204490812
:100D500002EB4151626B41EA0221084394F84010D2
:100D60004FF07E42490802EB41610843A16B09093B
:100D700040EA4140E968244A114000E041E008436C
:100D8000E860286840F080702860E86840F0807073
:100D9000E860FFF7EBFB044605E000BFFFF7E6FB6A
:100DA000001B022821D828688001F7D527E0286891
:100DB000800124D4286840F080702860E86840F002
:100DC0008070E860FFF7D2FB044604E0FFF7CEFB3B
:100DD000001B022809D828688001F7D50FE000BF62
:100DE000FFF7C4FB001B022802D90320BDE8F883EB
:100DF00028688001F4D4E86804490840E8600020CD
:100E0000F4E70120F2E700008C809DF9FCFFEEFE84
:100E100010B5401EB0F1807F01D3012010BD4FF00E
:100E2000E02460610F21601700F01BFC0020A0612E
:100E300007202061002010BD7047704770470000F8
:100E4000F0B590F83C20012A39D0012480F83C40CC
:100E5000022280F83D20026853689568194E1A4FA7
:100E6000B24201D0BA4204D123F4700C4B6843EA79
:100E70000C0323F0700C0B6843EA0C035360026808
:100E8000B24210D0B2F1804F0DD0104B9A420AD02E
:100E90000F4B9A4207D00F4B9A4204D0BA4202D06D
:100EA0000D4B9A4204D1896825F080031943916063
:100EB00080F83D40002180F83C100846F0BD02203B
:100EC000F0BD0000002C014000340140000400404F
:100ED00000080040000C00400040014010B5040034
:100EE00003D094F83D0010B107E0012010BD0020B0
:100EF00084F83C00204600F023F8022084F83D00EE
:100F0000211D206800F0E8FA012084F8480084F8E8
:100F10003E0084F83F0084F8400084F8410084F8E3
:100F2000420084F8430084F8440084F8450084F8C3
:100F3000460084F8470084F83D00002010BD000002
:100F400008B5114A01681148914211D1016E41F46E
:100F500000610166006E002200F400600090012133
:100F60001920FFF767FBBDE808401920FFF754BBC5
:100F7000074A914207D1816D41F002018165806D80
:100F800000F00200009008BD002C0140001002405B
:100F90000004004090F83D10012901D00120704765
:100FA000022180F83D1000681149884211D0B0F14B
:100FB000804F0ED00F4988420BD00F49884208D08D
:100FC0000E49884205D00E49884202D00D49884218
:100FD00007D181680C4A1140062906D0B1F5803F3F
:100FE00003D0016841F0010101600020704700005A
:100FF000002C01400004004000080040000C0040AC
:1010000000340140004001400700010090F83D100D
:10101000012901D001207047022180F83D100168AC
:10102000CA6842F00102CA6000681149884211D0C2
:10103000B0F1804F0ED00F4988420BD00E49884244
:1010400008D00E49884205D00D49884202D00D498A
:10105000884207D181680C4A1140062906D0B1F5B3
:10106000803F03D0016841F001010160002070471A
:10107000002C01400004004000080040000C00402B
:1010800000340140004001400700010001680A6A85
:10109000074B1A4207D10A6A9B121A4203D10A6807
:1010A00022F001020A60012180F83D100020704703
:1010B0001111110070B5044690F83C00002501287C
:1010C00017D0012684F83C60022084F83D00226895
:1010D00090682F4B184020F47F409060086850289B
:1010E00038D00DDC20284FD005DC90B3102811D16A
:1010F0004AE0022070BD302846D040280AD13BE0AB
:1011000060282FD070280DD0B0F5805F03D0B0F5E7
:10111000005F12D0012584F83D60002084F83C0077
:10112000284670BDCB68D1E90121206800F038FA6B
:101130002068816841F0770109E0CB68D1E901219D
:10114000206800F02DFA2068816841F480418160B8
:10115000E1E719E0CA684968206800F033FA5021D5
:10116000206806E0CA684968206800F059FA6021E2
:10117000206800F01FFACEE7CA684968206800F0CE
:1011800021FA40212068F4E7226801461046F0E782
:1011900088FFFEFF70472DE9F04104460068C668ED
:1011A00005694FF00007A90713D5B10711D5F91E3E
:1011B000016101202077206880698007204602D0E5
:1011C000FFF7E8FF04E000F08BF8204600F089F814
:1011D0002777680716D5700714D521686FF00400CB
:1011E0000861022020772068806910F4407F204643
:1011F00002D0FFF7CFFF04E000F072F8204600F0C5
:1012000070F82777280715D5300713D521686FF0B8
:1012100008000861042020772068C0698007204604
:1012200002D0FFF7B7FF04E000F05AF8204600F0C4
:1012300058F82777E80616D5F00614D521686FF020
:1012400010000861082020772068C06910F4407FF2
:10125000204602D0FFF79EFF04E000F041F8204650
:1012600000F03FF82777E80708D0F00706D021689C
:101270006FF001000861204600F034F8280601D420
:10128000A80408D5300606D521686FF4025008611D
:101290002046FFF7D2FDE80508D5300606D52168BF
:1012A0006FF4807008612046FFF7C6FD680608D518
:1012B000700606D521686FF040000861204600F0F6
:1012C00012F8A8060AD5B00608D521686FF02000EC
:1012D00008612046BDE8F041FFF7B0BDBDE8F081F0
:1012E0007047704770477047FEE7000010B588B040
:1012F00000241848059406940394049400940194DF
:1013000013490294016041F63F71C0E901140911CB
:10131000C0E9031444618461FFF7E0FD08B172B6CF
:10132000FEE74FF48050039003A90A48FFF7C2FE7E
:1013300008B172B6FEE7009401946946054802942C
:10134000FFF77EFD002801D072B6FEE708B010BDA1
:10135000002C01401000002010B588B00024174870
:101360000094019402940394049405941249069401
:1013700001605021C0E901144FF6FF71C0E9031468
:101380008461FFF7ABFD08B172B6FEE74FF4805001
:10139000009069460948FFF78DFE08B172B6FEE776
:1013A000049404A905480694FFF74AFD002801D0DB
:1013B00072B6FEE708B010BD000400405C000020DB
:1013C000FEE7FEE770470000F8B51C4D0646002416
:1013D000A86DC00002D5FFF793F90DE0A86D40F0AD
:1013E0008050A865A86D00F080500090FFF788F944
:1013F000A96D21F08051A965B0F5007F04D0802E41
:1014000007D94FF003040AE0802E08D9A02E01D896
:1014100004E001D1022402E0702E00D1012408482A
:10142000016821F0070121430160006800F0070016
:10143000A04201D00120F8BD0020F8BD00100240FC
:10144000002002407047FFF797B800B597B04421DD
:101450006846FEF709FF142111A8FEF705FF4FF4B7
:101460000070FFF719F908B172B6FEE70220C1015A
:1014700003911021009004910A900121CDE90B0104
:101480000A210D910721CDE90E1010906846FFF753
:1014900033FA08B172B6FEE70F20119003201290C4
:1014A0000020139014901590042111A8FFF730F933
:1014B000002801D072B6FEE717B000BD02480168EF
:1014C00041F470010160704788ED00E00148FFF7CA
:1014D00062BE0000100000202DE9F0470268284B92
:1014E000284D294E294F2A4C4FF0804A984209D066
:1014F000504507D0A84205D0B04203D0B84201D031
:10150000A04204D122F0700C4A6842EA0C02DFF8D3
:1015100084C0DFF88480DFF8849098420FD0504573
:101520000DD0A8420BD0B04209D0B84207D0A0429B
:1015300005D0604503D0404501D0484503D122F491
:101540004075CA682A434D6922F080022A438D689B
:10155000C5620D688562984207D0A04205D06045FB
:1015600003D0404501D0484501D1096901630168B4
:1015700041F004010160012141610260BDE8F08792
:10158000002C01400004004000080040000C004016
:101590000034014000400140004401400048014047
:1015A00010B5846842EA032224F47F440A432243AC
:1015B000826010BD826822F070020A4342F0070187
:1015C0008160704710B5036A046A24F00104046264
:1015D0000E4CA0420BD00E4CA04208D00D4CA042A5
:1015E00005D00D4CA04202D00C4CA04203D1046A9D
:1015F00024F004040462846924F0F00444EA021430
:1016000023F00A020A438461026210BD002C0140EB
:1016100000340140004001400044014000480140C6
:1016200010B5036A046A24F0100404620A4CA04254
:1016300002D00A4CA04203D1046A24F040040462A0
:10164000846923F0A00324F4704444EA023243EA9C
:1016500001118261016210BD002C01400034014083
:10166000FEE70907090E002804DB00F1E02080F8FE
:101670000014704700F00F0000F1E02080F8141D06
:10168000704770B5054600244FF47A7604E0304682
:1016900000F006F8641CA4B2AC42F8D370BD0000A0
:1016A00070B5084C05460020216848622046FFF7C7
:1016B00071FC2068416AA942FCD3BDE87040014832
:1016C000FFF7E4BC5C00002086B0FEF75DFFFFF78B
:1016D000BCFE14216846FEF7C7FD1E48C16C41F0F0
:1016E0000201C164C16C01F002010591C16C41F0BD
:1016F0000101C164C06C184C00F00100059000228B
:1017000003212046FEF72DFF0320009001200190C9
:1017100000200290039069462046FEF70BFEFFF77B
:10172000E5FDFFF719FE0D48FFF770FC42F210755A
:101730004FF47A762846FFF7B3FF02212046FEF7E2
:1017400008FF3046FFF79DFF01212046FEF701FF0D
:10175000F0E70000001002400004004810000020E4
:101760004FF04070E1EE100A7047000000000000EA
:10177000000000000102030406070809A08601001A
:10178000400D0300801A060000350C0040420F0097
:1017900080841E0000093D0000127A000024F4003D
:1017A00000366E010048E801006CDC02CC1700082E
:1017B0000000002010000000C4010008DC17000831
:1017C00010000020F8060000E00100080100000001
:0C17D000100000000000000000093D00B7
:040000050800018965
:00000001FF
