:020000040800F2
:10000000C006002029020008AF1300080D130008E5
:10001000AD1300082F0300087D1900080000000040
:100020000000000000000000000000003114000883
:100030003103000800000000B11300083314000869
:10004000430200084302000843020008430200087C
:10005000430200084302000843020008430200086C
:10006000430200084302000843020008430200085C
:10007000430200084302000843020008430200084C
:10008000430200084302000843020008430200083C
:10009000430200084302000843020008430200082C
:1000A000430200084302000843020008430200081C
:1000B000430200084302000843020008430200080C
:1000C00043020008430200084302000843020008FC
:1000D00043020008430200084302000843020008EC
:1000E00043020008430200084302000843020008DC
:1000F00043020008430200084302000843020008CC
:1001000043020008430200084302000843020008BB
:1001100043020008430200084302000843020008AB
:10012000430200084302000843020008430200089B
:10013000430200084302000843020008430200088B
:10014000430200084302000843020008430200087B
:10015000430200084302000843020008430200086B
:10016000430200084302000843020008430200085B
:100170004302000843020008430200080000000098
:10018000430200084302000800F002F800F03CF8C7
:100190000AA090E8000C82448344AAF10107DA45E2
:1001A00001D100F031F8AFF2090EBAE80F0013F0F8
:1001B000010F18BFFB1A43F001031847AC180000E9
:1001C000CC180000103A24BF78C878C1FAD852077A
:1001D00024BF30C830C144BF04680C6070470000C1
:1001E0000023002400250026103A28BF78C1FBD840
:1001F000520728BF30C148BF0B6070471FB501F0E0
:100200000DFC1FBD10B510BD00F058F81146FFF7EA
:10021000F5FF01F0C5FB00F076F803B4FFF7F2FF3D
:1002200003BC00F07DF800000948804709480047FA
:10023000FEE7FEE7FEE7FEE7FEE7FEE7FEE7FEE796
:10024000FEE7FEE704480549054A064B70470000F3
:10025000A914000889010008C0000020C006002081
:10026000C0020020C00200204FF0000200B513467B
:1002700094469646203922BFA0E80C50A0E80C50C6
:10028000B1F12001BFF4F7AF090728BFA0E80C5077
:1002900048BF0CC05DF804EB890028BF40F8042B70
:1002A00008BF704748BF20F8022B11F0804F18BFDD
:1002B00000F8012B7047704770477047754600F093
:1002C0002BF8AE4605006946534620F007008546E8
:1002D00018B020B5FFF7B6FFBDE820404FF000068C
:1002E0004FF000074FF000084FF0000B21F007011E
:1002F000AC46ACE8C009ACE8C009ACE8C009ACE861
:10030000C0098D46704710B50446AFF30080204603
:10031000BDE81040FFF781BF004870475C00002037
:1003200001491820ABBEFEE7260002007047FEE739
:100330007047000070B5044600F01EF90546601CC9
:1003400002D004480078044400F016F9401BA04293
:10035000FAD370BD000000202DE9F04FDFF8EC91DA
:1003600000220127A9F1040B85B003254FF00F0CE3
:1003700009F1040AABF1040EE0E000BF07FA02F451
:1003800016EA04037ED00E7906F00306012E01D092
:10039000022E1FD186680096560005FA06F80496CC
:1003A000009E26EA08060096D1F80C80049E08FA02
:1003B00006F8009E48EA0608C0F80880466891F8EA
:1003C0000480A643C8F3001808FA02F848EA0608B1
:1003D000C0F80480D1F804806FEA0806B6070AD195
:1003E000C66AA643C8F3C00494403443C4620C797F
:1003F000E443A4070AD0C4684FEA420805FA08F6A5
:10040000B4438E6806FA08F62643C6600C7904F0F9
:100410000304022C11D1D40800EB84060296D6F80E
:1004200020805407E60E0CFA06F428EA04080C694A
:10043000B440029E44EA08043462046856000296FE
:1004400005FA06F6B4430E7906F00308029E08FA90
:1004500006F848EA0408C0F800804C6814F4403FED
:100460006BD03B4C266E46F001062666246E22F0C9
:10047000030604F001040094364C34440294A4684A
:10048000960700E059E04FEA16780CFA08F6B443F4
:10049000B0F1904F04D0304EB04203D101261BE0A2
:1004A000002619E02D4EB04201D1022614E02C4E58
:1004B000B04201D103260FE02A4EB04201D10426FA
:1004C0000AE0294EB04201D1052605E0274EB04290
:1004D00001D1062600E0072606FA08F62643029C0C
:1004E000A660D9F800404E46D1F804809C435FEAEC
:1004F000C82800D51C433460DAF800405646D1F8CD
:1005000004809C435FEA882800D51C433460DBF8F4
:1005100000405E46D1F804809C435FEA883800D5ED
:100520001C433460DEF800407646D1F804809C43DA
:100530005FEAC83800D51C433460521C0B681E4665
:10054000D3407FF41BAF05B000F012B8080401409F
:10055000001002400000014000040048000800486C
:10056000000C004800100048001400480018004823
:1005700030BCBDE8C08F00000148806870470000B3
:1005800000000020024881680278114481607047B1
:100590000000002010B50024032000F063F80F20B5
:1005A00000F008F808B1012401E000F025F8204629
:1005B00010BD000070B50E4E05460024307898B18D
:1005C0004FF47A71B1FBF0F00A490968B1FBF0F021
:1005D00000F016FC40B9102D06D200222946501E0C
:1005E00000F020F8756000E00124204670BD000096
:1005F000000000200C000020094808B5016E41F001
:1006000001010166016E01F001010091816D41F06F
:1006100080518165806D00F08050009008BD000021
:1006200000100240F0B40E4B1B680C46C3F30223CB
:10063000C3F10705042D00D90425191D072901D28E
:10064000002300E0DB1E012606FA05F1491E2140C9
:1006500099409E40761E16403143F0BC01F08FB9A0
:100660000CED00E0064900F0070208684FF6FF03B2
:10067000184040EA0220034A104308607047000017
:100680000CED00E00000FA051649B0F5007F08689F
:10069000C0F3412009D0022805D0086820F4C060CA
:1006A00040F480600860002070470128FBD0086893
:1006B00020F4C06040F4007008600B4832220068EB
:1006C00050430A4AB0FBF2F0401C00E0401E4A6969
:1006D000520501D50028F9D148694005E3D503202A
:1006E00070470000007000400C00002040420F00E6
:1006F0000248006800F4C0607047000000700040CD
:100700002DE9F0470F4605006BD0494E306800F0E8
:100710000700B84209D2306820F007003843306043
:10072000306800F00700B8425BD12878414C800760
:100730000AD5A868A16801F0F001884204D9A1682F
:1007400021F0F0010143A1602878C0072CD068682F
:10075000032811D0022812D0216898B14905002938
:100760003FDAA16821F003010143A160FFF704FF14
:10077000804641F2883910E021688901EFE721685D
:100780008903ECE78907EAE7FFF7F6FEA0EB08012B
:10079000494502D90320BDE8F087A068696800F0E8
:1007A0000C00B0EB810FEFD1287880070AD5A8683C
:1007B000A16801F0F001884204D2A16821F0F001A3
:1007C0000143A160306800F00700B8420BD93068DF
:1007D00020F0070038433060306800F00700B8426E
:1007E00001D00120D7E72878400705D5A068E9683F
:1007F00020F4E0600843A0602878000706D5A068D0
:10080000296920F4605040EAC100A06000F01AF8A5
:10081000A168094AC1F30311515C01F01F01C840EE
:100820000649086006480068BDE8F047FFF7C2BE09
:100830000020024000100240281A00080C0000208E
:100840000400002070B52549002318468A68CC684A
:1008500012F00C0204F00306214C4FEA640509D0A3
:100860000C2A05D0042A32D0082A00D1284670BDAF
:10087000012E10D10B681B0704D4D1F89430C3F3B8
:10088000032302E00B68C3F30313164E56F823301C
:10089000DAB10C2AEBD1C86800F00300022818D0A6
:1008A000032818D01846CA68CB68C2F30212C3F3F3
:1008B00006234343521CB3FBF2F2C868C0F3416005
:1008C000401C4000B2FBF0F070BD184670BD2046E1
:1008D00070BD2046E7E72846E5E70000001002402B
:1008E0000024F400381A00082DE9F84304006FD002
:1008F000FD4DA86800F00C06E86800F003072078BA
:10090000C00664D576B10C2E01D1012F0AD0A069A2
:10091000002828687AD040F001002860FFF72CFEFC
:1009200080465DE02868800702D5A0690028DED0F7
:10093000216A2868000703D5286800F0F00004E069
:10094000D5F89400F02202EA1010814216D9084628
:1009500000F030FD00283BD1286840F008002860F6
:100960002868216A20F0F000084328606868E1697F
:1009700020F47F4040EA0120686016E0286840F0DB
:10098000080028602868216A20F0F00008432860E9
:100990006868E16920F47F4040EA0120686026B978
:1009A000206A00F007FD0028D5D1FFF74BFFA968AA
:1009B000CE4AC1F30311515C01F01F01C840CC497C
:1009C0000860CC480068FFF7F5FD00287ED12EE0D6
:1009D000CAE000BFFFF7D0FDA0EB0800022876D8E0
:1009E00028688007F6D5286840F008002860286845
:1009F000216A20F0F000084328606868E16920F46B
:100A00007F4040EA0120686011E0FFE720F001002C
:100A10002860FFF7B1FD804606E000BFFFF7ACFDA0
:100A2000A0EB08000228DAD828688007F6D42078DE
:100A3000C00740D0082E18D00C2E01D1032F14D09F
:100A40006068B0F5803F17D0B0F5A02F286817D0A8
:100A500020F480302860286820F4802028606068B6
:100A6000E0B1FFF789FD804614E02868800322D5B5
:100A70006068002878D01EE0286840F48030EDE7F8
:100A800040F480202860F7E7FFF776FDA0EB080030
:100A90006428A4D828688003F6D50CE0FFF76CFD25
:100AA000804605E0FFF768FDA0EB0800642896D8B3
:100AB00028688003F6D4207880073BD5042E11D017
:100AC0000C2E01D1022F0DD0E06801E086E1D6E0C6
:100AD000002828681ED040F480702860FFF74CFD85
:100AE00007460CE0286840050CD5E0680028C1D016
:100AF00008E000BFFFF740FDC01B022893D828681C
:100B00004005F7D56868217C20F0F85040EA016084
:100B100068600FE020F480702860FFF72DFD074625
:100B200005E000BFFFF728FDC01B0228B1D82868E8
:100B30004005F7D42078000729D560690028D5F84A
:100B4000940012D040F00100C5F89400FFF714FDA6
:100B5000074604E0FFF710FDC01B022899D8D5F81E
:100B600094008007F6D512E000E120F00100C5F8FE
:100B70009400FFF701FD074605E000BFFFF7FCFC0E
:100B8000C01B02287BD8D5F894008007F6D42078C3
:100B9000400766D5A86D0027C00008D4A86D40F0B6
:100BA0008050A865A86D012700F080500090524841
:100BB0000168C90512D40168814641F48071016061
:100BC000FFF7DAFC804605E0FFF7D6FCA0EB080053
:100BD000022854D8D9F80000C005F5D5A06801282E
:100BE00016D00528D5F8900017D020F00100C5F8E0
:100BF0009000D5F8900020F0040000BFC5F89000E8
:100C0000A06841F28839C0B1FFF7B6FC80460FE01A
:100C1000D5F8900040F00100F0E740F00400C5F87E
:100C20009000F5E7FFF7A8FCA0EB0801494526D89E
:100C3000D5F890008007F5D50EE0FFF79DFC8046C3
:100C400006E000BFFFF798FCA0EB0801494516D865
:100C5000D5F890008007F5D41FB1A86D20F0805022
:100C6000A865A06AF0B302280AD00C2E7ED02868AE
:100C700020F080702860FFF77FFC0446B0E0ACE015
:100C8000E868E26A00F00301914229D1216B00F08B
:100C9000700209011039914222D1626B00F4FE41C9
:100CA000B1EB022F1CD1A26B00F40031072A01D056
:100CB000012200E00022914212D1A18F00F4C00273
:100CC00049084905A1F50011914209D194F8401055
:100CD00000F0C06049084906A1F1007181425ED070
:100CE0000C2E0BE072E0000000100240281A0008F1
:100CF0000C000020040000200070004079D028681B
:100D0000400176D42868C00073D4286820F0807031
:100D10002860FFF731FC064605E000BFFFF72CFC1A
:100D2000801B022859D828688001F7D4D4E90B0128
:100D30006FF00F0202EB01110843A18F5204490822
:100D400002EB4151626B41EA0221084394F84010E2
:100D50004FF07E42490802EB41610843A16B09094B
:100D600040EA4140E968244A114000E041E008437C
:100D7000E860286840F080702860E86840F0807083
:100D8000E860FFF7F9FB044605E000BFFFF7F4FB5E
:100D9000001B022821D828688001F7D527E02868A1
:100DA000800124D4286840F080702860E86840F012
:100DB0008070E860FFF7E0FB044604E0FFF7DCFB2F
:100DC000001B022809D828688001F7D50FE000BF72
:100DD000FFF7D2FB001B022802D90320BDE8F883ED
:100DE00028688001F4D4E86804490840E8600020DD
:100DF000F4E70120F2E700008C809DF9FCFFEEFE95
:100E000010B5401EB0F1807F01D3012010BD4FF01E
:100E1000E02460610F21601700F0B1FD0020A061A7
:100E200007202061002010BDF0B590F83C20012A79
:100E300039D0012480F83C40022280F83D2002682D
:100E400053689568194E1A4FB24201D0BA4204D184
:100E500023F4700C4B6843EA0C0323F0700C0B680E
:100E600043EA0C0353600268B24210D0B2F1804FE3
:100E70000DD0104B9A420AD00F4B9A4207D00F4B1D
:100E80009A4204D0BA4202D00D4B9A4204D18968EA
:100E900025F080031943916080F83D40002180F8DF
:100EA0003C100846F0BD0220F0BD0000002C0140BF
:100EB000003401400004004000080040000C0040E5
:100EC0000040014010B5040003D094F83D0010B17B
:100ED00007E0012010BD002084F83C00204600F00F
:100EE00023F8022084F83D00211D206800F0E4FA78
:100EF000012084F8480084F83E0084F83F0084F81C
:100F0000400084F8410084F8420084F8430084F8EB
:100F1000440084F8450084F8460084F8470084F8CB
:100F20003D00002010BD000008B500680649884259
:100F300008D10648816D41F002018165806D00F0A5
:100F40000200009008BD00000004004000100240B4
:100F500070B5044690F83C000025012817D0012602
:100F600084F83C60022084F83D00226890682F4B92
:100F7000184020F47F4090600868502838D00DDC7D
:100F800020284FD005DC90B3102811D14AE0022070
:100F900070BD302846D040280AD13BE060282FD0D1
:100FA00070280DD0B0F5805F03D0B0F5005F12D08F
:100FB000012584F83D60002084F83C00284670BD7F
:100FC000CB68D1E90121206800F0E7FA2068816848
:100FD00041F0770109E0CB68D1E90121206800F0F8
:100FE000DCFA2068816841F480418160E1E719E022
:100FF000CA684968206800F073FC5021206806E048
:10100000CA684968206800F099FC6021206800F0F7
:10101000CEFACEE7CA684968206800F061FC40213A
:101020002068F4E7226801461046F0E788FFFEFFDB
:1010300010B586B0044614216846FFF715F90D492E
:101040002068884214D10C48C16C41F00201C1648F
:10105000C06C002100F002000590012000900220E9
:10106000CDE90101CDE9031069460448FFF774F9A1
:1010700006B010BD0004004000100240000400480B
:1010800070B5044690F83C0000260D4601280BD0B0
:10109000012084F83C000C2A4AD007DC82B1042AE3
:1010A00020D0082A06D131E0022070BD102A53D08A
:1010B000142A63D00126002084F83C00304670BD1D
:1010C000206800F07DFA2068816941F008018161A3
:1010D0002068816921F004018161206881692A69A1
:1010E000114311E0206800F0BDFA2068816941F4E5
:1010F000006181612068816921F4806181612068DB
:1011000081692A6941EA02218161D4E7206800F0FF
:10111000F3FA2068C16941F00801C1612068C16922
:1011200021F00401C1612068C1692A69114311E0FD
:10113000206800F02BFB2068C16941F40061C161A7
:101140002068C16921F48061C1612068C1692A6990
:1011500041EA0221C161AEE7206800F051FB20683E
:10116000416D41F0080141652068416D21F00401A5
:1011700041652068416D2A69114311E0206800F043
:1011800077FB2068416D41F4006141652068416D45
:1011900021F4806141652068416D2A6941EA02219C
:1011A000416588E710B5040003D094F83D0010B104
:1011B00007E0012010BD002084F83C00204600F02C
:1011C00022F8022084F83D00211D206800F074F907
:1011D000012084F8480084F83E0084F83F0084F839
:1011E000400084F8410084F8420084F8430084F809
:1011F000440084F8450084F8460084F8470084F8E9
:101200003D00002010BD704730B50446022269B190
:10121000042912D0082917D00C291CD0102921D05C
:1012200094F84300012824D0012030BD94F83E00FA
:101230000128F9D184F83E201DE094F83F000128F0
:10124000F2D184F83F2016E094F840000128EBD159
:1012500084F840200FE094F841000128E4D184F89C
:10126000412008E094F842000128DDD184F84220B2
:1012700001E084F843200122206800F081F91A4A35
:1012800020681A4B1A49904209D0984207D08842E8
:1012900005D0184DA84202D0174DA84203D1456C85
:1012A00045F400454564206890420FD0B0F1804F6E
:1012B0000CD0124A904209D0114A904206D0114AED
:1012C000904203D0984201D0884207D181680E4AEB
:1012D0001140062906D0B1F5803F03D0016841F0E6
:1012E00001010160002030BD002C014000340140AC
:1012F000004001400044014000480140000400401B
:1013000000080040000C004007000100FEE700005C
:1013100010B58EB000240794089409940A940B9495
:101320000C941C2168460D94FEF79EFF1E481D4933
:1013300001604F21C0E9011440F2CF71C0E90314EC
:101340008461FFF7BFFD08B172B6FEE74FF480502D
:10135000079007A91448FFF7FBFD08B172B6FEE736
:101360001148FFF71FFF08B172B6FEE70B940BA9F7
:101370000D480D94FFF758FD08B172B6FEE76020E6
:10138000CDE9000402940822694607480494FFF757
:1013900077FE08B172B6FEE70348FFF749FE0EB0CC
:1013A00010BD00000004004010000020FEE7FEE732
:1013B00070470000F8B51C4D06460024A86DC0001B
:1013C00002D5FFF795F90DE0A86D40F08050A865B3
:1013D000A86D00F080500090FFF78AF9A96D21F008
:1013E0008051A965B0F5007F04D0802E07D94FF059
:1013F00003040AE0802E08D9A02E01D804E001D110
:10140000022402E0702E00D101240848016821F076
:10141000070121430160006800F00700A04201D0ED
:101420000120F8BD0020F8BD00100240002002405D
:101430007047FFF7A7B800B597B044216846FEF79C
:1014400013FF142111A8FEF70FFF4FF40070FFF7F0
:101450001BF908B172B6FEE70220C1010391102109
:10146000009004910A900121CDE90B010A210D9110
:101470000721CDE90E1010906846FFF735FA08B144
:1014800072B6FEE70F2011900320129000201390F7
:1014900014901590042111A8FFF732F9002801D00B
:1014A00072B6FEE717B000BD0248016841F4700152
:1014B0000160704788ED00E02DE9F0470268284B95
:1014C000284D294E294F2A4C4FF0804A984209D086
:1014D000504507D0A84205D0B04203D0B84201D051
:1014E000A04204D122F0700C4A6842EA0C02DFF8F4
:1014F00084C0DFF88480DFF8849098420FD0504594
:101500000DD0A8420BD0B04209D0B84207D0A042BB
:1015100005D0604503D0404501D0484503D122F4B1
:101520004075CA682A434D6922F080022A438D68BB
:10153000C5620D688562984207D0A04205D060451B
:1015400003D0404501D0484501D1096901630168D4
:1015500041F004010160012141610260BDE8F087B2
:10156000002C01400004004000080040000C004036
:101570000034014000400140004401400048014067
:1015800010B501F01F030121046A99408C430462E5
:10159000016A9A401143016210BD10B5846842EAA5
:1015A000032224F47F440A432243826010BD8268F0
:1015B00022F070020A4342F0070181607047000088
:1015C0002DE9F043056A026A22F0010202624368D3
:1015D00082691E4C25F0020522400C6822F00302AD
:1015E00014438A681B4E2A43194D1B4FDFF86CC009
:1015F000DFF86C90A84207D0B04205D0B84203D0C3
:10160000604501D048450AD1D0F8208028F0040870
:10161000C0F8208022F00808CA6842EA0802A842FE
:1016200007D0B04205D0B84203D0604501D048454C
:1016300005D14D6923F440731D438B692B434360EF
:101640008461496841630262BDE8F0838FFFFEFF59
:10165000002C0140003401400040014000440140A2
:1016600000480140F0B5056A026A22F010020262E9
:10167000426883691A4C1C4E23400C6823F4407363
:1016800043EA042425F020038D6843EA0513154D31
:10169000A84201D0B04208D1076A27F0400707628C
:1016A000CF6823F0800343EA0713A8420AD0B04270
:1016B00008D00E4DA84205D00D4DA84202D00D4DC8
:1016C000A84207D14D6922F4406242EA85028D6941
:1016D00042EA850242608461496881630362F0BD29
:1016E000FF8FFFFE002C014000340140004001400C
:1016F0000044014000480140F0B5056A026A22F446
:10170000807202624268C3691A4C1C4E23400C6806
:1017100023F003031C4325F400738D6843EA05237B
:10172000154DA84201D0B04208D1076A27F480675E
:101730000762CF6823F4006343EA0723A8420AD074
:10174000B04208D00E4DA84205D00E4DA84202D09E
:101750000D4DA84207D14D6922F4405242EA0512CC
:101760008D6942EA05124260C4614968C16303623F
:10177000F0BD00008FFFFEFF002C0140003401404F
:1017800000400140004401400048014030B5046A77
:10179000026A22F4805202624268C369124D24F444
:1017A00000542B400D6823F4407343EA05238D68F1
:1017B00044EA05340D4DA8420BD00D4DA84208D087
:1017C0000C4DA84205D00C4DA84202D00B4DA842AA
:1017D00004D14D6922F4804242EA85124260C3611D
:1017E00049680164046230BDFF8FFFFE002C014098
:1017F00000340140004001400044014000480140E5
:1018000030B5056A026A22F4803202624268436D92
:10181000114C23400C681C4325F400330D8943EA26
:1018200005430E4DA8420BD00D4DA84208D00D4DDA
:10183000A84205D00C4DA84202D00C4DA84204D1BC
:101840004D6922F4803242EA0522426044654968CB
:101850008165036230BD00008FFFFEFF002C014058
:101860000034014000400140004401400048014074
:1018700030B5046A026A22F4801202624268436D43
:10188000114D24F400142B400D6843EA05230D8903
:1018900044EA05540D4DA8420BD00D4DA84208D086
:1018A0000C4DA84205D00C4DA84202D00B4DA842C9
:1018B00004D14D6922F4802242EA852242604365C8
:1018C0004968C165046230BDFF8FFFFE002C0140F6
:1018D0000034014000400140004401400048014004
:1018E00010B5036A046A24F0010404620E4CA0429D
:1018F0000BD00E4CA04208D00D4CA04205D00D4C90
:10190000A04202D00C4CA04203D1046A24F004048B
:101910000462846924F0F00444EA021423F00A0209
:101920000A438461026210BD002C01400034014072
:1019300000400140004401400048014010B5036AE6
:10194000046A24F0100404620A4CA04202D00A4C3B
:10195000A04203D1046A24F040040462846923F0A5
:10196000A00324F4704444EA023243EA0111826184
:10197000016210BD002C014000340140FEE7090760
:10198000090E002804DB00F1E02080F80014704705
:1019900000F00F0000F1E02080F8141D70470000F7
:1019A00008B5FEF7F7FDFFF746FD1248C16C41F0A0
:1019B0000201C164C16C01F002010091C16C41F0EF
:1019C0000101C164C06C00F001000090FFF7A0FCB1
:1019D00008210948FFF718FC002422460821064880
:1019E00000F00CF86420FEF7A5FC641CE4B2642C43
:1019F000F3D3F1E70010024010000020642A00D960
:101A0000642205480068C16A491C51436422B1FB45
:101A1000F2F1C16370470000100000204FF04070E9
:101A2000E1EE100A70470000000000000000000016
:101A30000102030406070809A0860100400D030007
:101A4000801A060000350C0040420F0080841E0002
:101A500000093D0000127A000024F40000366E01F7
:101A60000048E801006CDC02881A00080000002031
:101A700010000000C4010008981A0008100000209F
:101A8000B0060000E00100080100000010000000A6
:081A90000000000000093D0008
:040000050800018965
:00000001FF
