:020000040800F2
:1000000008070020550200087D2000087520000820
:10001000792000085D030008A1240008000000000A
:10002000000000000000000000000000852400081F
:1000300061030008000000008120000889240008F6
:100040006F0200086F0200086F0200086F020008CC
:100050006F0200086F0200086F0200086F020008BC
:100060006F0200086F0200086F0200086F020008AC
:100070006F0200086F0200086F0200086F0200089C
:100080006F0200086F0200086F0200086F0200088C
:100090006F0200086F0200086F0200086F0200087C
:1000A0006F0200086F0200086F0200086F0200086C
:1000B0006F0200086F0200086F0200086F0200085C
:1000C0006F0200086F0200086F0200086F0200084C
:1000D000852000086F0200086F0200086F02000808
:1000E0006F0200086F0200086F0200086F0200082C
:1000F0006F0200086F0200086F0200086F0200081C
:100100006F0200086F0200086F0200086F0200080B
:100110006F0200086F0200086F0200086F020008FB
:100120006F0200086F0200086F0200086F020008EB
:100130006F0200086F0200086F0200086F020008DB
:100140006F0200086F0200086F0200086F020008CB
:100150006F0200086F0200086F0200086F020008BB
:100160006F0200086F0200086F0200086F020008AB
:100170006F0200086F0200086F0200080000000014
:100180006F0200086F02000800F002F800F052F859
:1001900014A696E8000CB244B344DA4501D100F04D
:1001A00049F8BAE80F000FA696E83000A5EB040561
:1001B00004EB0607AAEB0704A7F101074FEA1515A0
:1001C0004FEA3414A4F10104AC4201D300F032F838
:1001D00013F0010F18BFFB1A43F0010300F001F800
:1001E000DBE7184794280000B4280000103A24BF29
:1001F00078C878C1FAD8520724BF30C830C144BF8C
:1002000004680C6070470000704700000023002461
:1002100000250026103A28BF78C1FBD8520728BF16
:1002200030C148BF0B6070471FB502F0F8FB1FBD1F
:1002300010B510BD00F058F81146FFF7F5FF02F0B9
:1002400033FB00F076F803B4FFF7F2FF03BC00F0D5
:100250007DF800000948804709480047FEE7FEE7AF
:10026000FEE7FEE7FEE7FEE7FEE7FEE7FEE7FEE766
:1002700004480549054A064B704700008D240008D4
:100280008901000808010020080700200803002059
:10029000080300204FF0000200B51346944696462E
:1002A000203922BFA0E80C50A0E80C50B1F1200189
:1002B000BFF4F7AF090728BFA0E80C5048BF0CC037
:1002C0005DF804EB890028BF40F8042B08BF704795
:1002D00048BF20F8022B11F0804F18BF00F8012B07
:1002E0007047704770477047754600F02BF8AE4670
:1002F00005006946534620F00700854618B020B532
:10030000FFF7B6FFBDE820404FF000064FF00007B2
:100310004FF000084FF0000BAC46ACE8C009ACE869
:10032000C009ACE8C009ACE8C00921F007018D465E
:10033000704710B50446AFF300802046BDE810407A
:10034000FFF781BF004870471000002001491820C6
:10035000ABBEFEE72600020070470000FEE700008B
:100360007047000090F82510022921D180B502685D
:10037000D0F838C0D0E910E1136801F01C0123F077
:10038000010313601368BCF1000F23F00E03136028
:100390004FF0010202FA01F1CEF804104FF0000113
:1003A00080F8252080F8241018BFE047002080BD89
:1003B0000421C1630120704790F824C0BCF1010FF3
:1003C00004BF02207047F0B54FF0010E80F824E022
:1003D00090F825C0BCF1010F2AD14FF0020C80F833
:1003E00025C04FF0000CC0F83CC0D0F800C08468B5
:1003F000056B066CDCF80070102C27F00107CCF8B8
:100400000070406C00F01C000EFA00F070600846AE
:10041000CCF8043004BF10460A46CCF80800CCF8EB
:100420000C20DCF800005DB140F00E0010E000BFD1
:100430008021C163002180F824100120F0BD00BF9D
:1004400020F00400CCF80000DCF8000040F00A00C6
:10045000CCF80000DCF8000040F00100CCF800000F
:100460000020F0BDB0B5044600F006F9054640F2A4
:100470000000C2F200000078611C18BF044400BFF5
:1004800000F0FAF8401BA042FAD3B0BD2DE9F04FBE
:1004900083B00E68002E00F0E38000F1200241F6E8
:1004A0000004009200F13847C4F6000407224FEA26
:1004B000B725A04208BF0622062D38BF4FEAB72253
:1004C000002500274FF0000801920AE00E6808F1AD
:1004D000010836FA08F207F1020705F1040500F0F9
:1004E000BF80012202FA08F416EA0409EED0D1F81E
:1004F00004A00AF0030CACF10106022E16D28668A5
:100500000322CB68BA409643BB40334383604368C1
:100510006FEA020E23EA0402CAF3001303FA08F397
:100520004FEA480B1A4342601AE000BFBCF1030FC8
:1005300010D1C66A4FF0030CA643CAF3C00404FAF4
:1005400008F42643C6620CFA07F66FEA060EBB46AD
:1005500028E000BF032202FA07F66FEA060EBB4648
:10056000C2688B6802EA0E0203FA0BF31A43BCF16D
:10057000020FC26016D16FF00302009C02EA58021B
:1005800005F01C060F2354F802C003FA06FA0B69A3
:100590002CEA0A0CB34043EA0C03A350D1F804A0A0
:1005A0000AF0030C02680CFA0BF302EA0E021A437B
:1005B0001AF4403F026089D041F26003C4F20203A2
:1005C0001A6840F2004E42F001021A601A68C4F242
:1005D000010E02F001020292029A28F003024FF685
:1005E000084C7244CFF6FF7C52F80C3005F00C0634
:1005F0000F24B440A343019C04FA06F6334342F8A7
:100600000C30DEF808204B6842EA090640F20C4C38
:10061000DC0258BF22EA0906CEF80860C4F2010CD9
:10062000DCF800209C0242EA090658BF22EA0906CB
:10063000CCF80060DEF804209C0342EA090658BFAB
:1006400022EA0906CEF80460DEF80020DB0342EA65
:10065000090658BF22EA0906CEF8006036E700BF57
:1006600003B000F000B830BCBDE8C08F1823002AEA
:1006700008BF2823C150704740F20010C2F20000AA
:100680000068704740F2000040F20011C2F2000022
:10069000C2F2000100780A68104408607047000048
:1006A00080B5032000F08CF80F2000F009F8002836
:1006B0001CBF012080BD00F02BF8002080BD000091
:1006C000B0B540F20005C2F200052978F1B1044648
:1006D00040F20800C2F200004FF47A720068B2FBE8
:1006E000F1F1B0FBF1F001F0AFFC01460F2C4FF03F
:1006F00001000AD8002918BFB0BD4FF0FF302146D5
:10070000002200F031F800206C60B0BD0120B0BDC7
:1007100082B041F25800C4F20200816841F0010148
:100720008160816801F0010101910199016841F046
:1007300080510160006800F080500090009802B085
:1007400070470000002848BF704700F01F010122D9
:1007500002FA01F11C2202EAD0004EF20012CEF29F
:10076000000281507047000010B54EF60C5CCEF2CE
:10077000000CDCF80030C3F3022E8EF00704042CCA
:1007800028BF0424BEF103034FF0FF3E0EFA04F429
:1007900038BF0023A14399400EFA03F39A43114353
:1007A00000F00F0200F160430901043A03F56443CD
:1007B0006244002848BF02F10C03197010BD00000C
:1007C0004EF60C51CEF200010A684FF6FF031A40B4
:1007D00060F30A2242F0806040F0FD7008607047CC
:1007E00047F20001C4F200010A68B0F5007F02F48C
:1007F000C06031D1B0F5007F2CD00868012262F3CF
:100800004A20086040F20800C2F20000006832226C
:1008100050434DF68362C4F21B32A0FB0202900CDF
:100820004A69520511D5421C0FD04A6952050CD5B0
:1008300058B14A69520508D5012806D04A695205BF
:1008400003D50228A0F10400EAD14869400544BF5D
:100850000320704700207047B0F5806FFAD0086819
:10086000022262F34A2008600020704747F200002D
:10087000C4F20000006800F4C06070472DE9F04346
:1008800081B0002800F08C8042F20009C4F2020915
:100890000446D9F8000000F0070088420CD2D9F8CD
:1008A000000020F007000843C9F80000D9F8000054
:1008B00000F00700884273D1206841F2080610F06A
:1008C0000202C4F202060AD0A368376807F0F007F4
:1008D000BB4204D9376827F0F0073B433360C307B6
:1008E00034D0606856F8082C50B1022804D0032890
:1008F0000AD192010AD453E0920307D450E000BF1A
:10090000920703D44CE000BF520549D588463168B0
:1009100021F0030108433060FFF7AEFE054641F2C7
:10092000883700BF3068616800F00C00B0EB810FC1
:1009300008D0FFF7A1FE401BB842F3D9032001B055
:10094000BDE8F0832068414600F0020252B1A2687F
:10095000336803F0F0039A4204D2336823F0F003C3
:100960001A433260D9F8002002F007028A420CD9FB
:10097000D9F8002022F007020A43C9F80020D9F86C
:10098000002002F007028A420AD141070CD4000776
:1009900012D43068716810F00C0019D11EE000BF4D
:1009A000012001B0BDE8F0833168E26821F4E06124
:1009B000114331600007ECD53068216920F46050A4
:1009C00040EAC10030603068716810F00C0005D05A
:1009D0000C282BD101F00301012927D156F8081C5E
:1009E000042211F008016FF0070108BF8C21715833
:1009F00008BF0822D14042F6482201F00F01C0F69C
:100A0000000252F8211000280A4618BF00220C28C4
:100A100038D1706800F00300022811D0032804BF09
:100A200041F20021C0F27A010EE000BF04281FD07D
:100A3000082823D141F20022C0F27A0222E000BF4E
:100A400042F20041C0F2F40170687268C0F3021013
:100A5000C2F30622514372680130B1FBF0F0C2F3D9
:100A60004161022202EB4101B0FBF1F20AE000BF5A
:100A700042F20042C0F2F40204E000BF0022002172
:100A80000C28C6D0306842F63821C0F30310C0F6F7
:100A90000001085C00F01F0022FA00F140F204009F
:100AA000C2F2000040F208020068C2F200021160C7
:100AB00001B0BDE8F043FFF703BE0000002804BF0B
:100AC000012070472DE9F04383B041F2000604464F
:100AD000C4F20206B068F168227800F00C09D00672
:100AE00001F003081ED42078C00700F08880B9F117
:100AF000080F00F07D80B9F10C0F08BFB8F1030FAB
:100B000076D061683068B1F5803F07D0B1F5A02F8D
:100B100040F0208240F480203060306840F4803023
:100B2000306021E2B9F1000F1CD0B9F10C0F08BF01
:100B3000B8F1010F16D0A1693068002900F0B88122
:100B400040F001003060FFF797FD054630688007F0
:100B500000F1C081FFF790FD401B02284FF0030019
:100B6000F4D92EE33068800703D5A069002800F08F
:100B7000DD82256A3068000700F12A81D6F89400EA
:100B8000000900F0F000854200F228813068B9F1D8
:100B9000000F40F008003060306820F0F00040EABC
:100BA000050030607068E16920F47F4040EA012070
:100BB000706040F08682B06DC00000F12382B06D9D
:100BC00040F08050B065B06D00F080500290029807
:100BD000FFF74CFEB16D21F08051B165B0F5007F9B
:100BE00000F01682802D40F2538203205BE200BFAA
:100BF0003068800303D56068002800F09782207871
:100C000080072DD5B9F1040F1CD0B9F10C0F08BF26
:100C1000B8F1020F16D0E1683068002900F0B48105
:100C200040F480703060FFF727FD054630684005CE
:100C30000FD4FFF721FD401B02284FF00300F5D928
:100C4000BFE200BF3068400503D5E068002800F02F
:100C50006D827068216920F0F85040EA0160706090
:100C6000207800075ED42078400775D4A06A002859
:100C700000F0EC82022840F0E380F068E16A00F0C6
:100C800003028A4240F0F480226B6FF00F0300F001
:100C9000700103EB0212914240F0EA80616B00F4B4
:100CA000FE42B2EB012F40F0E380A16B00F4003272
:100CB000073918BF01218A4240F0DA80E26B002335
:100CC000CFF6E07303EA025200F4C001A2F500126D
:100CD000914240F0CD80216C4FF07E4202EA0161EA
:100CE00000F0C06001F17E41884240F0C180306870
:100CF000800100F1AB82306840F080703060F068B5
:100D000040F08070F060FFF7B7FC04463068800167
:100D100000F19C82FFF7B0FC001B02284FF003009B
:100D2000F4D94EE26169D6F89400002972D040F0FF
:100D30000100C6F89400FFF79FFC0546D6F8940022
:100D4000800790D4FFF798FC401B0228F6D90320B7
:100D500003B0BDE8F08300BFB06D5FEAC00808D4FF
:100D6000B06D40F08050B065B06D00F080500090E4
:100D7000009847F20007C4F200073868C00513D492
:100D8000386840F480703860FFF776FC054600BF95
:100D90003868C00508D4FFF76FFC401B02284FF0ED
:100DA0000300F5D90DE200BFA168D6F89000012933
:100DB00008D0052940F0AE8040F00400C6F890004D
:100DC000D6F8900040F00100C6F89000AFE000BFF8
:100DD000306800F0F00085427FF6D8AEB06DC000FC
:100DE00000F18A80B06D40F08050B065B06D00F0C9
:100DF000805001900198FFF739FDB16D21F08051CD
:100E0000B165B0F5007F00F07D80802D40F2CE808E
:100E10000320D6E020F00100C6F89400FFF72CFC78
:100E2000054600BFD6F8940080077FF51CAFFFF79A
:100E300023FC401B02284FF00300F3D9C1E100BF9F
:100E4000B9F10C0F00F07281306820F080703060D2
:100E5000FFF712FC044600BF3068800140F1E080DB
:100E6000FFF70AFC001B02284FF00300F4D9A8E1A9
:100E7000B9F10C0F00F05A813068400100F1568141
:100E80003068C00000F15281306820F0807030601E
:100E9000FFF7F2FB05463068800140F19581FFF7CE
:100EA000EBFB401B02284FF00300F4D989E100BF9F
:100EB00020F001003060FFF7DFFB05463068800757
:100EC0007FF511AEFFF7D8FB401B02284FF003005F
:100ED000F4D976E1306840F0080030603068D4E939
:100EE000071220F0F00010433060706820F47F405B
:100EF00040EA01207060F6E5FFF7B8FCB0F5007F2E
:100F00007FF483AF812D5BD30120A02D88BF022009
:100F100057E000BF20F00100C6F89000D6F890001E
:100F2000002920F00400C6F8900000F08580FFF74B
:100F3000A3FB054641F28837D6F89000800700F100
:100F40008D80FFF799FB401BB842F5D9032003B011
:100F5000BDE8F08320F4803030603068002920F450
:100F60008020306000F08480FFF786FB054600BFDC
:100F7000306880033FF543AEFFF77EFB401B6428DB
:100F80004FF00300F4D91CE120F480703060FFF7CB
:100F900073FB0546306840057FF562AEFFF76CFBDA
:100FA000401B02284FF00300F4D90AE1A5F17000BC
:100FB000B0FA80F04009802D08BF022001E000BF98
:100FC000002042F20001C4F202010A6822F0070286
:100FD00002440A60096801F00701814240F0A680DE
:100FE000306840F0080030603068D4E9071220F023
:100FF000F00010433060706820F47F4040EA012028
:1010000070605EE0FFF732FCB0F5007F7FF4EAAD80
:10101000812D47D30120A02D88BF022043E000BFCF
:10102000F0684FF6FC71CFF6EE610840F0600020EA
:1010300003B0BDE8F08300BFFFF71EFB054641F299
:10104000883700BFD6F89000800707D5FFF714FB5C
:10105000401BB8424FF00300F4D9B2E0B8F1000FE2
:101060003FF504AEB06D20F08050B065FEE500BFE6
:10107000FFF702FB054600BF306880037FF5BFAD78
:10108000FFF7FAFA401B64284FF00300F4D998E008
:10109000A5F17000B0FA80F04009802D08BF022051
:1010A00001E000BF002042F20001C4F202010A6820
:1010B00022F0070202440A60096801F00701814238
:1010C00034D1B068F16810F00C0005D00C2831D193
:1010D00001F0030101292DD1314651F8942B12F072
:1010E0000802324608BF0A464FF00401126808BFE2
:1010F000082122FA01F142F6482201F00F01C0F660
:10110000000252F8211000280A4618BF00220C28BD
:101110003CD1F06800F00300022815D0032804BF7A
:1011200041F20021C0F27A0112E000BF012003B0B9
:10113000BDE8F08304281FD0082823D141F2002203
:10114000C0F27A0222E000BF42F20041C0F2F40194
:10115000F068F268C0F30210C2F306225143F2684D
:101160000130B1FBF0F0C2F34161022202EB410118
:10117000B0FBF1F20AE000BF42F20042C0F2F4021A
:1011800004E000BF002200210C28C2D0B06842F663
:101190003821C0F30310C0F60001085C00F01F0006
:1011A00022FA00F140F20400C2F2000040F208020C
:1011B0000068C2F200021160FFF782FA00283FF4D3
:1011C00092AC03B0BDE8F083F06848F28C01CFF632
:1011D0009D1104F12C0700EA010C8ECFD4E90F54C5
:1011E0006FF00F0040F2000E00EB0210CFF6E07E31
:1011F00041EA0C010EEA05554FF07E420843A5F581
:10120000001502EA046240EA032002F17E420EF574
:10121000F014284304EA473710433843F06030683D
:1012200040F080703060F06840F08070F060FFF750
:1012300023FA04463068800108D4FFF71DFA001B2A
:1012400002284FF00300F5D9BBE700BF002003B030
:10125000BDE8F08370470000B0B582B001684A680D
:101260008B6803F04105012D08D112F0400505D02F
:10127000C16C02B0BDE8B040084700BF9D0707D56C
:1012800012F0800504D0016D02B0BDE8B0400847FF
:1012900013F4B07F18BF12F0200501D102B0B0BD29
:1012A0005D0618D590F85D50032D09D100200190FE
:1012B000C868019088680190019802B0B0BD00BF75
:1012C000056E45F00405056600250195CD6801957C
:1012D0008D680195019D9D0604D4DB0511D4036E34
:1012E000DBB9DBE7056E45F00105056600250195D4
:1012F0008D6801950D6825F040050D60019DDB05A9
:10130000EDD5036E43F008030366002301938B6859
:101310000193019B036E002BC0D04B68920723F012
:10132000E0034B604FF0010380F85D3026D04A683F
:1013300042F2910422F003024A60816DC0F600047B
:1013400059B1054608468C63FFF70CF8014628465C
:1013500019B1016E41F040010166416D00299DD037
:101360008C6304460846FEF7FDFF002896D0206EE9
:1013700040F04000206602B0B0BD00BF02B0BDE842
:10138000B040FFF767BF0000002804BF012070478E
:10139000416A19B100210161142104E04168B1F5ED
:1013A000827F02D01C2100224250B0B50025856208
:1013B00090F85D1029B980F85C50044600F052F8AE
:1013C0002046022180F85D100168D0F80CE00B681F
:1013D000BEF5E06F23F040030B6098BF01254EF48B
:1013E0000063B3F5706F4FEA053C1CBF00258562B2
:1013F000D0E90154D0E9043205F4827504F40444C0
:101400002C4403F002032344846902F00102C569FD
:101410001A4404F400731A4405F03803056A1A44A8
:1014200005F08003856A1A4405F400531A430A60E4
:101430000422436A0EF4706502EA1442446B45EAE2
:101440000C0503F010032A4304F008041A43224356
:101450004A6000210122016680F85D20BDE8B040AD
:10146000084670472DE9F04387B0006843F6000155
:10147000C4F2000100268842CDE90566CDE9036685
:10148000029603D007B0BDE8F08300BF41F24C00E4
:10149000C4F20200C16840F2004441F48041C160DE
:1014A000C168C4F6000401F480410191019901680A
:1014B00002AD41F00401016001684FF0020801F043
:1014C00004010191019901684FF0030941F0020103
:1014D00001600068052700F00200019001980C20CF
:1014E000029004F580602946CDE90386CDF814907A
:1014F0000697FEF7CBFF4FF48060CDE90208204647
:101500002946CDE904690697FEF7C0FF2420002193
:101510000022FFF729F92420FFF714F907B0BDE8EE
:10152000F08300002DE9F04182B0044690F85D00A0
:1015300001281AD100294FF0010018BF002A03D159
:1015400002B0BDE8F08100BF60681D461746B0F5E7
:10155000827F03D1A068002800F0DE800E46FFF7EE
:101560008BF894F85C10012904D1022002B0BDE888
:10157000F08100BF8046012084F85C00042084F8DC
:101580005D00002020662664A4F84470A4F846702C
:10159000A063A087E0872168C4E91300D4E9022092
:1015A0004B68B0F5E06F23F4805398BF03F5805388
:1015B000B2F5004F4B6041D00A68520649D5B4F8E5
:1015C0004610B0F5E06F4DD8002900F08880681C07
:1015D0000FD11FE0007B216C0870206C013020646B
:1015E000B4F846000138A4F84600B4F846000028D4
:1015F00075D020688168C907ECD1FFF73DF8A0EBF2
:101600000800A842F1D348E0FFF736F8B4F84600E6
:10161000002864D020688168C907F5D0007B216C60
:101620000870206C01302064B4F846000138A4F83A
:101630004600B4F846000028ECD150E00A6822F0D9
:1016400040020A600A6822F480420A600A68520670
:10165000B5D40A6842F040020A60B4F84610B0F50A
:10166000E06FB1D9D9B3681C0DD126E0C068216CF8
:1016700021F8020B2164B4F846000138A4F84600B2
:10168000B4F8460058B320688168C907EED1FEF768
:10169000F3FFA0EB0800A842F2D3012084F85D001C
:1016A000002084F85C00032002B0BDE8F08100BF98
:1016B000FEF7E2FFB4F8460088B120688168C907E8
:1016C000F6D0C068216C21F8020B2164B4F8460002
:1016D0000138A4F84600B4F846000028EDD160684F
:1016E000B0F5827F0BD1A068B0F5004F02D0B0F505
:1016F000806F04D12068016821F04001016020461C
:101700002946424600F052FE90B1206E40F0200083
:101710002066202020661FE0042084F85D0020461B
:101720000A463B46009500F029FA02B0BDE8F08178
:101730006068B0F5827F0FD1A068B0F5004F02D08D
:10174000B0F5806F08D120464FF4C0612A46434669
:1017500000F068FD0028D8D1012084F85D00002049
:1017600084F85C00206E002818BF012002B0BDE89C
:10177000F0810000B0B590F85D50012D1CD11346EA
:101780000A4600294FF0010118BF002B02D108467C
:10179000B0BD00BF816859B94568B5F5827F07D1F2
:1017A0000425114680F85D50BDE8B04000F064BBF0
:1017B00090F85C50012D01D10220B0BD012580F8C8
:1017C0005C50042580F85D50002505660264A0F891
:1017D0004430A0F84630C0E913558587C587D0F856
:1017E00000E0B1F5004F0BD1DEF8001021F0400110
:1017F000CEF80010DEF8001021F48041CEF8001081
:10180000DEF8041021F40051CEF80410C368DEF8AD
:101810000410B3F5E06F07D921F48051CEF804101D
:10182000D0F858C02BE000BF41F48051CEF804102E
:10183000D0F858C0DCF81810B1F5806F1FD1DEF871
:10184000041021F48051CEF80410B0F84630DEF8D0
:101850000410DB0708D121F40051CEF80410B0F8D1
:101860004610490809E000BF41F40051CEF80410C9
:10187000B0F84610012303EB5101A0F8461042F2E4
:10188000C10142F2D10342F2A105C0F60001C0F647
:101890000003C0F600050024CCE90B31CCE90D545F
:1018A000B0F8463005460EF10C016046FEF784FDA7
:1018B00040B1286E40F010002866012085F85C4099
:1018C000B0BD00BF28680168490603D4016841F033
:1018D00040010160002185F85C10426842F020025E
:1018E0004260426842F0010242600846B0BD00001A
:1018F00040F28401C2F20001884218BF704710B55F
:1019000040F60000C4F60000022101220124FEF787
:10191000ADFE40F2FC00C2F200000470BDE81040D1
:1019200070470000704700002DE9F04182B01D466D
:1019300016460F460446FEF79FFE94F85D100129F7
:101940000ED18046002F4FF0010018BF002E03D1AA
:1019500002B0BDE8F08100BF94F85C00012803D11B
:10196000022002B0BDE8F081012084F85C00032071
:10197000002184F85D002166A763A687E6872164BD
:10198000A4F84410A4F84610A068E164B0F5004F34
:101990002068216507D1016821F0400101600168DC
:1019A00041F4804101600168490603D4016841F0B7
:1019B000400101606168731EE268B1FA81F1B3FA17
:1019C00083F349095B09B2F5E06F41EA030143D9AA
:1019D00031B137F8021BC160A763E08F0138E0879F
:1019E000E08F002876D0681C0BD124E0A16B31F881
:1019F000022BC260A163E08F0138E087E08F0028EE
:101A000068D0206881688907F0D4FEF735FEA0EB26
:101A10000800A842F2D3012084F85D00002084F879
:101A20005C00032002B0BDE8F08100BFFEF724FE99
:101A3000E08F00284ED0206881688907F6D5A16B19
:101A400031F8022BC260A163E08F0138E087E08F9C
:101A50000028F0D13EE000BF89B1E18F02294FF6A6
:101A6000FE7103D337F8022BC26004E03A780131EB
:101A70000273A06B471CA763E08F0844E087E08FE8
:101A800040B3681C5FD04FF6FE70461C08E000BFF4
:101A9000FEF7F2FDA0EB0800A842BCD2E08FC8B16F
:101AA000216888688007F3D5E28FA06B022A05D3EE
:101AB00030F8022BCA604FF6FE7104E0007808731C
:101AC000A06B31460130A063E08F0844E087E08FCF
:101AD0000028E5D120464FF4C0512A46434600F085
:101AE000A1FB68B920462946424600F05FFC38B9A0
:101AF00020464FF4C0612A46434600F093FB28B1CC
:101B0000206E40F02000206620202066A06838B9B2
:101B1000002001902068C1680191806801900198BF
:101B2000012084F85D00002084F85C00206E00280D
:101B300018BF012002B0BDE8F08100BFFEF79CFD98
:101B4000E08F0028C6D0206881688907F6D5E28F2B
:101B5000A16B012A08D931F8022BC260A163E08F82
:101B60000238E087ECE700BF09780173A06B013011
:101B7000A063E08F0138E087E2E700002DE9F04341
:101B800081B01E4615460F460446FEF775FD94F8D3
:101B90005D108146012909D1002F4FF0010018BFC7
:101BA000002D0FD101B0BDE8F08300BF6068B0F533
:101BB000827F0DD104294FF00200F3D1A1680029E2
:101BC000EAD0EFE7002EEDD094F85C00012803D1B5
:101BD000022001B0BDE8F083012084F85C0094F895
:101BE0005D0004281CBF052084F85D0000202066ED
:101BF0002564A4F84660A4F84460A763E687C4E9B6
:101C000013002068A687E1684268B1F5E06F22F40E
:101C10008052134698BF03F58053012E88BF1346A8
:101C200043600268520603D4026842F04002026038
:101C30006268731EB2FA82F2B3FA83F3DDF8208091
:101C400052095B09B1F5E06F43EA02016CD931B189
:101C500037F8021BC160A763E08F0138E0870125D8
:101C600018F1010035D101E0FEF706FDE08F20B943
:101C7000B4F84600002800F0CD802068816889070C
:101C80000CD5E18F51B1012D08D1A16B002531F8A0
:101C9000022BC260A163E18F0139E1878168C90726
:101CA000E2D0B4F846100029DED0C068216C0125CE
:101CB00021F8020B2164B4F846000138A4F846006C
:101CC000D2E700BFFEF7D8FCA0EB0900404580F04A
:101CD0009780E08F20B9B4F84600002800F09A8081
:101CE0002068816889070CD5E18F51B1012D08D199
:101CF000A16B002531F8022BC260A163E18F01398D
:101D0000E1878168C907DDD0B4F846100029D9D031
:101D1000C068216C012521F8020B2164B4F846004B
:101D20000138A4F84600CDE789B1E18F02294FF6CA
:101D3000FE7103D337F8022BC26004E03A78013118
:101D40000273A06B471CA763E08F0844E08701265D
:101D500008F10105E08F18B9B4F84600002859D001
:101D600020688168890719D5E18FB9B1012E15D195
:101D7000E28FA16B022A07D331F8022BC260A16364
:101D8000E18F023908E000BF09780173A16B206878
:101D90000131A163E18F01390026E1878168C9071C
:101DA00026D0B4F8461019B3B4F84610022913D35C
:101DB000C168226C22F8021B2264B4F84610023972
:101DC000A4F84610B4F84610012910D8416841F42F
:101DD000805141600BE000BF007B216C0870206CDB
:101DE00001302064B4F846000138A4F8460001260A
:101DF000FEF742FC002DADD0A0EB09004045A9D371
:101E0000012084F85D00002084F85C00032001B00C
:101E1000BDE8F08320464FF4C05142464B4600F0E7
:101E200001FA68B9204641464A4600F0BFFA38B97F
:101E300020464FF4C06142464B4600F0F3F968B1CA
:101E4000206E40F02000206620202066002084F8CC
:101E50005C00012001B0BDE8F08300BF012084F8E0
:101E60005D00002084F85C00206E002818BF01206F
:101E700001B0BDE8F083000070B590F85D50012D11
:101E800008D100294FF0010C18BF002A0ED160467E
:101E900070BD00BF4468B4F5827F0DD1042D4FF0B2
:101EA000020CF4D18568002DEBD0F0E7002BEED0CA
:101EB00090F85C50012D01D1022070BD012580F801
:101EC0005C5090F85D50042D1CBF052580F85D50D6
:101ED0000025056681638387C3870264A0F84430C8
:101EE000A0F846300168C0E91355C4684D68B4F5E0
:101EF000E06F25F4C0454D604D6803D925F480534B
:101F00004B6039E045F480554D60456DAD69B5F5E0
:101F1000806F11D14D68DB0706D125F480434B60FB
:101F2000C38F5B0807E000BF45F480434B60C38F5D
:101F3000012505EB5303C387836D9B69B3F5806F60
:101F40001AD14B6823F480534B60B0F846504B686D
:101F5000ED0707D123F400534B60B0F846305B081F
:101F600008E000BF43F400534B60B0F84630012551
:101F700005EB5303A0F8463090F85D3042F2C105FE
:101F800042F2C904C0F60005C0F60004D0F858C0FB
:101F9000042B08BF2C4642F2D10542F29913C0F639
:101FA0000005C0F6000308BF2B4642F2A10E002632
:101FB0000CF12C05C0F6000E85E81840CCF838600E
:101FC000B0F8463004460C316046FEF7F5F938B1FA
:101FD000206E40F010002066012084F85C6070BD27
:101FE0002568606D696805F10C0241F001016960C6
:101FF000C0E90B66C0E90D66A16BE38FFEF7DCF963
:1020000040B1206E40F010002066002084F85C0093
:10201000012070BD20680168490603D4016841F0C1
:10202000400101604FF0000C84F85CC0416841F051
:1020300020014160416841F002014160604670BD8D
:102040007047000070470000411E0020B0EB116F88
:102050001CBF012070474EF21002CEF20002516008
:102060004EF62351CEF20001F0230B700721906051
:1020700011607047FEE70000FEE70000FEE7000089
:102080007047000040F28400C2F20000FFF7E4B89D
:10209000806A0021A0F84610C187FFF7DBB8000076
:1020A000806A01684A6822F003024A60016E41F0CA
:1020B00010010166012180F85D10FFF7CBB8000028
:1020C000806AFFF72FBC0000806AFFF7BBBF0000EB
:1020D000B0B5846A0546FEF7CFFA29680968890613
:1020E00054D405462068A168034653F8042F22F013
:1020F00020021A6041B96268B2F5827F04D16FF0A4
:102100000302184610E000BF1A6822F001021A60AC
:102110006268B2F5827F0AD1B1F5004F6FF04002DC
:1021200002D0B1F5806F02D10168114001602046F4
:1021300064212A4600F03AF930B1206E40F02000C8
:1021400020662020206613E06068B0F5827F0FD102
:10215000A068B0F5004F02D0B0F5806F08D12046DE
:102160004FF4C06164222B4600F05CF80028E4D1F3
:102170000020A4F84600012084F85D00206E28B1FC
:102180002046BDE8B040FFF765B800BF2046BDE877
:10219000B040FFF7ADBB0000B0B5846A0546FEF75E
:1021A0006BFA29680968890636D4054620686422D6
:1021B00041682B4621F02001416020464FF4C05178
:1021C00000F030F868B9204664212A4600F0EEF8A5
:1021D00038B920464FF4C06164222B4600F022F843
:1021E00038B1206E40F020002066206E40F02000C4
:1021F00020662068416821F0030141600020E087EB
:10220000A4F84600012084F85D00206E20B120462D
:10221000BDE8B040FFF71EB82046BDE8B040FFF76C
:102220000FBF00002DE9F04782B000271E46904600
:102230000D4681468DF80370FEF71EFA301A00EB4A
:102240000806FEF719FA40F20801C2F20001096817
:1022500023225143090DD9F8004071430191A1682F
:10226000294239D0824618F1010039D0B5F5C06F46
:1022700022D108E0019801380190D9F80000806867
:1022800010F4C06F27D0207B8DF803009DF8030069
:10229000FEF7F2F9A0EB0A00B04259D201980028EB
:1022A000E8D10026E9E700BF019801380190D9F88C
:1022B0000000806828420ED0FEF7DEF9A0EB0A008D
:1022C000B04245D201980028EED10026D9F800008E
:1022D00080682842F0D10027384602B0BDE8F08778
:1022E0000027B5F5C06F25D1207B8DF803009DF840
:1022F0000300A06810F4C06FEDD0207B8DF80300C0
:102300009DF80300A06810F4C06FE4D0207B8DF826
:1023100003009DF80300A06810F4C06FDBD0207BA1
:102320008DF803009DF80300A06810F4C06FDBD1A6
:10233000D2E700BFA0682842CDD0A0682842CAD00A
:10234000A0682842C7D0A0682842F3D1C4E700BFE4
:10235000D9E900014268B1F5827F22F0E0024260D3
:102360000BD1D9F80810B1F5004F02D0B1F5806F4C
:1023700003D1016821F040010160D9F82810B1F5BE
:10238000005F07D1016821F400510160016841F448
:1023900000510160012089F85D00002089F85C008F
:1023A0000327384602B0BDE8F0870000F0B581B0E1
:1023B00015460E460446FEF75FF9281A8719FEF700
:1023C0005BF940F20801C2F200010968C1F3CB31A8
:1023D0007943009121688A68120626D50546701C4B
:1023E00007D118E000980138009020688068000646
:1023F0001BD5FEF741F9401BB84219D200980028BE
:10240000F0D10027206880680006F2D40DE000BFFC
:102410008868000609D58868000606D58868000621
:1024200044BF88685FEA0060F2D4002001B0F0BDCC
:10243000D4E900014268B1F5827F22F0E0024260F7
:102440000AD1A168B1F5004F02D0B1F5806F03D178
:10245000016821F040010160A16AB1F5005F07D178
:10246000016821F400510160016841F400510160EC
:10247000012084F85D00002084F85C00032001B096
:10248000F0BD000070470000FEF7FCB84EF6885023
:10249000CEF20000016841F4700101607047000055
:1024A000FEE700002DE9F04784B000200621C1229C
:1024B0004FF0000800F0B4F96420FDF7D3FF0020CE
:1024C0000621012200F0ACF920201021002200F0AA
:1024D000A7F920201021002200F0A2F920201421C9
:1024E00003224FF0030900F09BF900200321102282
:1024F00000F096F940F60004C4F600044FF07F0A9D
:102500002046022100228DF806808DF805A0FEF7F6
:10251000ADF840F28405C2F200050DF10501284630
:1025200001226423FFF700FA0DF10601284601227B
:102530006423FFF7F9F9204602210122FEF796F8FD
:1025400020200021002200F06BF92020012103222D
:1025500000F066F983272046022100228DF80870DA
:102560008DF80A808DF809A0FEF780F80DF10901B9
:10257000284601226423FFF7D7F90DF10A01284606
:1025800001226423FFF7D0F9204602210122FEF741
:102590006DF8204602210022FEF768F802A92846BD
:1025A00001226423FFF7C0F90DF1070628463146E2
:1025B00001226423FEF7B6FF204602210122FEF726
:1025C00055F89DF80700032140F0020200208DF825
:1025D000072000F025F96420FDF744FF2046022182
:1025E00000228DF80B708DF80D808DF80CA0FEF791
:1025F0003DF803A9284601226423FFF795F90DF160
:102600000D01284601226423FFF78EF9204602219E
:102610000122FEF72BF8204602210022FEF726F8C1
:102620000DF10B01284601226423FFF77DF92846AE
:10263000314601226423FEF775FF20460221012264
:10264000FEF714F89DF80700032140F02002002057
:102650008DF8072000F0E4F80A20FDF703FF0720BB
:102660008DF8070030200121072200F0D9F80A2058
:10267000FDF7F8FE40208DF80700002005214022DC
:1026800000F0CEF80A20FDF7EDFE302000210322F5
:102690008DF8079000F0C4F80A20FDF7E3FE8020D3
:1026A0008DF8070030200221802200F0B9F80A20BE
:1026B000FDF7D8FE302003210C2200F0B1F83020C5
:1026C0000421322200F0ACF830200621012200F073
:1026D000A7F83220FDF7C6FE30200521812200F048
:1026E0009FF83220FDF7BEFE6420FDF7BBFE3020D0
:1026F00003210C2200F094F830200421312200F054
:102700008FF830200621082200F08AF83220FDF7E9
:10271000A9FE30200521812200F082F83220FDF749
:10272000A1FE302003218C2200F07AF83020042111
:10273000112200F075F83220FDF794FE30200521BB
:10274000882200F06DF83220FDF78CFE2046022131
:1027500000228DF80F808DF80EA0FDF787FF0DF198
:102760000E01284601226423FFF7DEF80DF10F0168
:10277000284601226423FFF7D7F8204602210122D0
:10278000FDF774FF04B0BDE8F087000040F2E802F6
:10279000C2F200021388014618BA000C0880508863
:1027A00000BA000C4880908800BA000C8880D0885D
:1027B00000BA000CC880108900BA000C088150894A
:1027C00000BA000C4881D0898881108AC881528A59
:1027D00000200A827047000010B582B0AD208DF84D
:1027E000070040F60000C4F6000002210022FDF7B9
:1027F0003DFF40F28404C2F200040DF107012046BF
:1028000001224FF47A73FFF78FF840F2E801C2F229
:10281000000120461422FEF7ADFF02B010BD0000FB
:10282000B0B582B040F600048DF807007F20C4F6F2
:1028300000048DF805108DF804208DF80600204660
:1028400002210022FDF712FF40F28405C2F20005CA
:102850000DF10601284601226423FFF765F80DF10A
:102860000701284601226423FFF75EF82046022173
:102870000122FDF7FBFE204602210022FDF7F6FEB5
:102880000DF10501284601226423FFF74DF801A947
:10289000284601226423FFF747F82046022101223F
:1028A000FDF7E4FE02B0B0BD96B0FDF7F9FE05A855
:1028B00004302421FDF7EEFC4FF40070FDF790FF8B
:1028C00020B1EFF3108072B6FEE700BF4FF48071C5
:1028D000089110210991012111910A2102201291E0
:1028E00007210590CDE90F00CDE91310159005A83B
:1028F000FEF7E4F820B1EFF3108072B6FEE700BFF8
:102900000F20009003200190002568460421CDE9A6
:1029100002550495FDF7B2FF20B1EFF3108072B6B7
:10292000FEE700BF41F24C000995CDE90755CDE91E
:102930000555C4F20200016840F6000441F00401AC
:1029400001600168C4F6000401F0040100910099DF
:102950000168002241F0020101600168022601F0D5
:10296000020100910099016841F0010101600068D5
:10297000022100F00100009000982046FDF776FE4D
:10298000012705A920460596CDE906750895FDF7AE
:102990007DFD40F2700043F60001C2F20000C4F277
:1029A000000140F8141F4FF482714FF4E062C0E957
:1029B000011500F10C014FF40073C4C10721C0E9F7
:1029C00006350562C0E90955C0E90B154563FEF7F8
:1029D000DBFC28B1EFF3108072B600BFFEE700BF4A
:1029E000FFF760FD40F2FC0540F27004C2F2000502
:1029F0000026C2F2000403E020462E70FFF7C6FE58
:102A0000FFF7EAFE28780028F6D128780028F3D1CD
:102A100028780028F0D128780028F3D0ECE7F1EEF0
:102A2000100A4FF6FF71C0F2C03120EA010040F0F9
:102A30004070E1EE100A7047000000000000000046
:102A40000102030406070809A0860100400D0300E7
:102A5000801A060000350C0040420F0080841E00E2
:102A600000093D0000127A000024F40000366E01D7
:102A70000048E801006CDC02982A000800000020F1
:102A800010000000EC010008A82A00081000002037
:102A9000F80600000C020008010000001000000011
:082AA00000093D0000000000E8
:040000050800018965
:00000001FF
